:100000000C9434000C9449000C9449000C94490061
:100010000C9449000C9449000C9449000C9449003C
:100020000C9449000C9449000C9449000C9449002C
:100030000C9449000C9449000C9449000C9449001C
:100040000C9482000C9449000C94EE010C9449002D
:100050000C9449000C9449000C9449000C944900FC
:100060000C945E000C94490011241FBECFEFD8E021
:10007000DEBFCDBF11E0A0E0B1E0E6E7FAE002C0EC
:1000800005900D92AA36B107D9F70E9449020C9447
:1000900039050C940000E4E6F0E080818F778083DE
:1000A0008CE68093B800E9EBF0E080818260808389
:1000B000ECEBF0E080818460808308951F920F92C2
:1000C0000FB60F9211240F900FBE0F901F9018952E
:1000D000EEE6F0E0808181608083A89A789484B510
:1000E000826084BD84B5816084BD85B5836085BD33
:1000F00085E087BD84B5806484BD85B5886085BD95
:10010000569A08951F920F920FB60F9211240F90D6
:100110000FBE0F901F9018959091C00095FFFCCFD7
:100120008093C6000895CF93DF93EC0103C090E065
:100130000E948C0089918111FACFDF91CF910895AF
:100140000F931F93CF93DF93CDB7DEB72F970FB6E3
:10015000F894DEBF0FBECDBF0E9493008091B9001E
:10016000887F1F928F9387E091E09F938F938E01FA
:100170000F5F1F4F1F930F930E946402C8010E94DC
:1001800093000F900F900F900F900F900F902F965D
:100190000FB6F894DEBF0FBECDBFDF91CF911F9198
:1001A0000F91089584E88093BC008091BC0087FF84
:1001B000FCCF8091B900887F883521F08BE091E0F9
:1001C0000E94A0008091BB00089584EC8093BC0045
:1001D0008091BC0087FFFCCF8091B900887F80357B
:1001E00021F08DE191E00E94A0008091BB00089574
:1001F0008093BB0084E88093BC008091BC0087FFA3
:10020000FCCF8091B900887F883221F08AE291E0AA
:100210000C94A00008958093BB0084E88093BC00F8
:100220008091BC0087FFFCCF8091B900887F883126
:1002300021F084E391E00C94A00008958093BB002A
:1002400084E88093BC008091BC0087FFFCCF809144
:10025000B900887F803421F087E491E00C94A000FD
:10026000089584EA8093BC008091BC0087FFFCCF96
:100270009091B9008091B900887F803141F0892F39
:10028000887F883021F089E591E00C94A0000895E2
:100290008F929F92AF92BF92CF92DF92EF92FF9296
:1002A0000F931F93CF93DF93CDB7DEB761970FB650
:1002B000F894DEBF0FBECDBF0E94310182EA0E94DA
:1002C0000B0182E00E94F8000E94310183EA0E9443
:1002D0001E017E018BE0E80EF11C6E01E1E1CE0E05
:1002E000D11C87010E94E500F80181938F01EC1574
:1002F000FD05C1F70E94D200898B84E98093BC0080
:100300004701F7E08F0E911C24E6A22E21E0B22EC9
:100310008E010F5F1F4FF70181917F011F928F9315
:1003200094E6C92E91E0D92EBF92AF921F930F93FE
:100330000E946402C8010E9493000F900F900F90DA
:100340000F900F900F90E814F90429F787E591E0DA
:100350000E9493000E94310182EA0E940B018DE00D
:100360000E94F80082E00E94F80084E9F82EF092E2
:10037000BC000E94310182EA0E940B0182E00E94CF
:10038000F8000E94310183EA0E941E010E94D200FF
:10039000F092BC001F928F93DF92CF921F930F9326
:1003A0000E946402C8010E9493000F900F900F906A
:1003B0000F900F900F9061960FB6F894DEBF0FBEAE
:1003C000CDBFDF91CF911F910F91FF90EF90DF9004
:1003D000CF90BF90AF909F908F9008951F920F92F3
:1003E0000FB60F9211242F933F934F935F936F9308
:1003F0007F938F939F93AF93BF93EF93FF938091DE
:10040000C6000E948C000E944801FF91EF91BF91AD
:10041000AF919F918F917F916F915F914F913F919C
:100420002F910F900FBE0F901F901895E4E6F0E00B
:1004300080818D7F8083E1ECF0E080818068808323
:100440001092C5008CE08093C400A0ECB0E08C91C9
:1004500082608C93A2ECB0E08C9186608C9380815A
:100460008061808380818860808308950E944B0032
:10047000399A419A389A40980E941602559A80E01B
:1004800091E00E9493000E9468008FB780688FBF40
:1004900008950E9436022FE33DE083E02150304072
:1004A0008040E1F700C000000E94480190E22FEF79
:1004B00034E38CE0215030408040E1F700C0000080
:1004C0008BB189278BB9F3CFAEE0B0E0EAE6F2E07A
:1004D0000C9410050D891E8986E08C831A8309838C
:1004E0008FEF9FE79E838D83CE014996AC016F8984
:1004F000788DCE0101960E948602EF81F885E00F8B
:10050000F11F10822E96E4E00C942C05ACE0B0E0D4
:10051000ECE8F2E00C9402057C016B018A01FC011D
:1005200017821682838181FFC6C188248394912C0F
:100530008C0E9D1EF7019381F60193FD859193FF2B
:1005400081916F01882309F4B2C1853239F493FD9A
:10055000859193FF81916F01853229F4B70190E075
:100560000E947804E7CF512C312C20E02032A8F4EF
:100570008B3261F028F4803251F0833271F40BC079
:100580008D3239F0803349F4216028C02260246024
:1005900025C0286023C0206121C027FD27C0382F37
:1005A00030533A3078F426FF06C0FAE05F9E300DF3
:1005B0001124532E13C08AE0389E300D1124332E9F
:1005C00020620CC08E3221F426FD71C1206406C069
:1005D0008C3611F4206802C0883641F4F60193FD90
:1005E000859193FF81916F018111C0CF982F955410
:1005F000933018F09052933028F40C5F1F4FFFE3B4
:10060000F9830DC0833631F0833771F0833509F0FB
:100610005EC023C0F801808189830E5F1F4F442490
:100620004394512C540115C03801F2E06F0E711C37
:10063000F801A080B18026FF03C0652D70E002C0E4
:100640006FEF7FEFC5012C870E946D042C018301A1
:100650002C856FE7262E222218C03801F2E06F0E9B
:10066000711CF801A080B18026FF03C0652D70E0E9
:1006700002C06FEF7FEFC5012C870E9462042C013E
:100680002C8550E8252E222A830123FC1CC006C09D
:10069000B70180E290E00E9478043A94832D90E0C4
:1006A00048165906A8F30FC0F50127FC859127FECF
:1006B00081915F01B70190E00E94780431103A9473
:1006C000F1E04F1A51084114510471F7EDC084361E
:1006D00011F0893641F5F80127FF07C0608171816B
:1006E000828193810C5F1F4F08C0608171818827D0
:1006F00077FD8095982F0E5F1F4F4FE6B42EB222E4
:1007000097FF09C090958095709561957F4F8F4FA9
:100710009F4FF0E8BF2A2AE030E0A4010E94A40421
:10072000A82EA81843C0853731F43FEEB32EB2226D
:100730002AE030E024C099EFB92EB2228F36B9F00A
:1007400020F4883509F0B3C00DC0803721F0883718
:1007500009F0ADC002C020E1B22AB4FE0BC084E0B3
:10076000B82A08C024FF09C0E6E0BE2A06C028E077
:1007700030E005C020E130E002C020E132E0F801C5
:10078000B7FE07C060817181828193810C5F1F4F2A
:1007900006C06081718180E090E00E5F1F4FA40170
:1007A0000E94A404A82EA818FFE7BF22B6FE0BC023
:1007B0002B2D2E7FA51450F4B4FE0AC0B2FC08C045
:1007C0002B2D2E7E05C07A2C2B2D03C07A2C01C038
:1007D000752C24FF0DC0FE01EA0DF11D80818033D0
:1007E00011F4297E09C022FF06C07394739404C0DB
:1007F000822F867809F0739423FD14C020FF0FC068
:100800005A2C731460F4530C5718732C08C0B7019A
:1008100080E290E02C870E94780473942C857314F6
:10082000B0F304C0731410F4371801C0312C24FF46
:1008300012C0B70180E390E02C870E9478042C85D9
:1008400022FF1EC021FF03C088E590E002C088E7B8
:1008500090E0B7010CC0822F867891F021FD02C094
:1008600080E201C08BE227FD8DE2B70190E00E949B
:10087000780406C0B70180E390E00E9478045A949F
:10088000A514C0F3AA94F401EA0DF11DB70180810B
:1008900090E00E947804A110F5CF06C0B70180E275
:1008A00090E00E9478043A943110F8CF43CEF701DB
:1008B0002681378102C02FEF3FEFC9012C96E2E17C
:1008C0000C941E05FC010590615070400110D8F792
:1008D000809590958E0F9F1F0895FC016150704088
:1008E00001900110D8F7809590958E0F9F1F089565
:1008F0000F931F93CF93DF938C01EB018B8181FDCD
:1009000003C00FEF1FEF1AC082FF0DC02E813F8181
:100910008C819D812817390764F4E881F98101935E
:10092000F983E88306C0E885F985802F0995892B2E
:1009300041F78E819F8101969F838E83C801DF914D
:10094000CF911F910F910895FA01AA27283051F1F4
:10095000203181F1E8946F936E7F6E5F7F4F8F4FF0
:100960009F4FAF4FB1E03ED0B4E03CD0670F781F4F
:10097000891F9A1FA11D680F791F8A1F911DA11D34
:100980006A0F711D811D911DA11D20D009F468946D
:100990003F912AE0269F11243019305D3193DEF615
:1009A000CF010895462F4770405D4193B3E00FD0CB
:1009B000C9F7F6CF462F4F70405D4A3318F0495DB6
:1009C00031FD4052419302D0A9F7EACFB4E0A69599
:1009D0009795879577956795BA95C9F700976105BB
:1009E000710508959B01AC010A2E06945795479511
:1009F00037952795BA95C9F7620F731F841F951F06
:100A0000A01D08952F923F924F925F926F927F9216
:100A10008F929F92AF92BF92CF92DF92EF92FF920E
:100A20000F931F93CF93DF93CDB7DEB7CA1BDB0BBA
:100A30000FB6F894DEBF0FBECDBF09942A8839885F
:100A400048885F846E847D848C849B84AA84B98466
:100A5000C884DF80EE80FD800C811B81AA81B98172
:100A6000CE0FD11D0FB6F894DEBF0FBECDBFED0186
:060A70000895F894FFCF89
:100A760073746172742000252378006572725F7248
:100A86006563656976655F6C617374200065727273
:100A96005F7265636569766520006572725F73656E
:100AA6006E6420006572725F616464726573735F61
:100AB600777269746520006572725F61646472653D
:100AC60073735F7265616420006572725F7374612F
:0A0AD6007274200025303278000011
:00000001FF
