S01500004D65726F706543656E7472616C2E73726563DE
S11300000C943A000C9457000C9457000C9457002D
S11300100C9457000C9457000C9457000C94570000
S11300200C9457000C9457000C9457000C945700F0
S11300300C9457000C9457000C9457000C945700E0
S11300400C9457000C9457000C94E5130C9457002F
S11300500C9457000C9457000C9457000C945700C0
S11300600C9457000C9457006364696E6F70737539
S113007078585B0011241FBECFEFD8E0DEBFCDBFA0
S113008015E0A0E0B1E0E4E4F9E302C005900D92CC
S1130090A635B107D9F728E0A6E5B5E001C01D9261
S11300A0AF37B207E1F70E94DD140C94A01C0C9446
S11300B000007F936F932DE031E03F932F939F9344
S11300C08F930E94571621E030E00F900F900F900D
S11300D00F900F900F90019711F020E030E0822FE5
S11300E0932F08950F931F93CF93DF93082F10E05E
S11300F0C62FD0E0C01BD10B0E94DB15282F9927F7
S1130100C817D9073CF426952695822F90E0C81786
S1130110D907CCF3080F191F802F912FDF91CF91AE
S11301201F910F91089580915605089581E0809361
S113013056050895CF93DF93EC0160E171E00E94CE
S1130140F615282F392F232B09F442C065E171E0FD
S1130150CE010E94F615282F392F232BE1F16AE1F5
S113016071E0CE010E94F615282F392F232BB1F10F
S11301706FE171E0CE010E94F615282F392F232B51
S113018081F164E271E0CE010E94F615282F392F27
S1130190232B51F169E271E0CE010E94F615282F5C
S11301A0392F232B21F16EE271E0CE010E94F61566
S11301B0282F392F232BF1F063E371E0CE010E9445
S11301C0F615282F392F232BC1F423E030E017C074
S11301D024E030E014C025E030E011C026E030E037
S11301E00EC027E030E00BC020E030E008C021E082
S11301F030E005C022E030E002C02FEF3FEF822F55
S1130200932FDF91CF910895CF9330910C01333127
S113021008F03FC0A32FB0E0C5E13C9FF0011124DA
S1130220E55AFA4F80834183528363837483268320
S11302309923D4F0823091056CF004970497A0F4CC
S113024085E18A9FF0018B9FF00D1124E55AFA4F46
S113025015820AC085E18A9FF0018B9FF00D11245D
S1130260E55AFA4F81E085833F5F30930C01F99999
S1130270FECF44EA51E061E070E08BE595E00E9436
S1130280401BF999FECF60910C0180E090E00E9440
S11302904A1BCF910895EF92FF920F9330910C0176
S11302A0333190F595E1399FF0011124E55AFA4F65
S11302B080834183528363837483268303872CE37F
S11302C02E9DC0012F9D900D1124AA2797FDA09566
S11302D0BA2F87839087A187B28781E085833F5FA8
S11302E030930C01F999FECF44EA51E061E070E0EB
S11302F08BE595E00E94401BF999FECF60910C01BB
S113030080E090E00E944A1B0F91FF90EF900895C7
S1130310EF920F931F9330910C01333190F595E1D7
S1130320399FF0011124E55AFA4F808341835283A7
S11303306383748326832CE3209FC001219F900D47
S11303401124AA2797FDA095BA2F87839087A187A8
S1130350B287E48A82E085833F5F30930C01F99988
S1130360FECF44EA51E061E070E08BE595E00E9445
S1130370401BF999FECF60910C0180E090E00E944F
S11303804A1B1F910F91EF9008951F93CF93DF9312
S1130390C0910C01D0915B05A4E0B1E02C2F215059
S11303A085E1289F9001112420593A4F70E040E7DD
S11303B055E01FEF0FC04596FC01759760816713E8
S11303C002C01C9303C082179307A9F77F5F11969D
S11303D0783031F0CC23D1F3D71799F3CA01F3CF96
S11303E0DF91CF911F9108953F924F925F926F9248
S11303F07F928F929F92AF92BF92CF92DF92EF92B1
S1130400FF920F931F93CF93DF93CDB7DEB76E9711
S11304100FB6F894DEBF0FBECDBF25E1829FC001A9
S11304201124FC01E55AFA4FC180D280E380F480A4
S11304300581368087809084A184B28413854088A6
S113044051886288738880818330E1F020F48130A0
S113045079F098F408C08530F9F0C8F0863009F1D5
S1130460873049F523C088E391E00E94E30D27C05B
S113047083E491E00E94E30D22C08EE491E00E94A7
S1130480E30D1DC089E591E00E94E30D18C084E6E8
S113049091E00E94E30D13C08FE691E00E94E30D0A
S11304A00EC08AE791E00E94E30D09C085E891E05F
S11304B00E94E30D04C080E991E00E94E30D011164
S11304C017C08EE991E00E94E30DAE014F5F5F4FCC
S11304D0C701B6010E94EA0BCE0101960E94E30D0A
S11304E089EA91E00E94E30D81E0381270C06AC08D
S11304F0013089F583EA91E00E94E30DAE014F5F7C
S11305005F4FC701B6010E94EA0BCE0101960E941B
S1130510E30D89EA91E00E94E30D632D772767FDDF
S11305207095872F972F0E94FE0D88EA91E00E9414
S1130530E30D81E081149104A104B10409F480E085
S1130540882309F467C081E0111101C080E0882389
S113055009F460C043C0023009F05FC08BEA91E047
S11305600E94E30DAE014F5F5F4FC701B6010E94C9
S1130570EA0BCE0101960E94E30D89EA91E00E9404
S1130580E30D632D772767FD7095872F972F0E94C2
S1130590FE0D88EA91E00E94E30D612F772767FD45
S11305A07095872F972F0E94FE0D83EB91E00E9498
S11305B0E30DC301B2010E94FE0D86EB91E00E949F
S11305C0E30D28C08BEB91E00E94E30D23C03110B2
S11305D021C081EC91E00E94E30D1CC0612F7727BC
S11305E067FD7095872F972F0E94FE0D83EB91E096
S11305F00E94E30DC501B4012CE330E040E050E07B
S11306000E941215CA01B9010E94FE0D86EC91E008
S11306100E94E30D0E94F20D10C0AE014F5F5F4FC8
S1130620C701B6010E94EA0BCE0101960E94E30DB8
S113063089EA91E00E94E30DEDCF6E960FB6F8942F
S1130640DEBF0FBECDBFDF91CF911F910F91FF9001
S1130650EF90DF90CF90BF90AF909F908F907F905E
S11306606F905F904F903F9008950F931F93CF9397
S1130670DF93CDB7DEB76E970FB6F894DEBF0FBE2B
S1130680CDBF8BEC91E00E94E30D80910C011F9291
S11306908F938DE091E09F938F938E010F5F1F4F97
S11306A01F930F930E943516C8010E94E30D0E9408
S11306B0F20D0F900F900F900F900F900F9080916C
S11306C00C01882349F010E0812F0E94F4011F5F80
S11306D080910C011817C0F36E960FB6F894DEBF24
S11306E00FBECDBFDF91CF911F910F910895CF938E
S11306F0DF9310920C01EBE5F5E0A6E6B5E08FEF91
S113070096E02FEF20831182128213821482ED016E
S1130710259718821C921782108611861286ED0185
S11307202697188275965596E817F90759F7F99997
S1130730FECF44EA51E061E070E08BE595E00E9471
S1130740401BF999FECF60910C0180E090E00E947B
S11307504A1B81E080935605DF91CF9108958F92D3
S11307609F92AF92BF92CF92DF92EF92FF921F932C
S1130770CF93DF93182FEB010E94DD0CC62ED72EEA
S1130780E82EF92E1111E8C08D81823009F0A7C03E
S11307908C859D85AE85BF8546015701881A990AC7
S11307A0AA0ABB0A88899989AA89BB8931E000977A
S11307B0A105B10509F030E021E088159905AA05E5
S11307C0BB050CF020E0211103C0332309F45AC007
S11307D0222379F0332329F08EED91E00E94E30D7A
S11307E004C085EF91E00E94E30D9E818B85890F03
S11307F08E83CC86DD86EE86FF8649815A816B81A5
S11308007C818F819885A985BA85840F951FA61F41
S1130810B71F8C199D09AE09BF09893C9105A10533
S1130820B105ECF480E092E00E94E30D49815A8125
S11308306B817C818F819885A985BA85840F951FEA
S1130840A61FB71F8C199D09AE09BF09888B998B08
S1130850AA8BBB8B8C899E81891B8B8713C068EC08
S11308608AE00E947200AA2797FDA095BA2F888B70
S1130870998BAA8BBB8B64E686E40E9472009E81EE
S1130880891B8B872E814FEF2403C001112424E69A
S113089030E0B9010E94FE14162F5B855403C00199
S11308A01124B9010E94FE14C888D988EA88FB88FB
S11308B0C814D904EA04FB046CF0A62FB72FA501D1
S11308C094010E944115A70196010E941215812FDF
S11308D0820F02C0812F860F0E94CD0726C181306E
S11308E009F023C12E813FEF2303C001112464E6E4
S11308F070E00E94FE14162F8F809884A984BA8415
S113090081149104A104B10419F12B853FEF230351
S1130910C001112464E670E00E94FE1489819A816A
S1130920AB81BC81A7019601281B390B4A0B5B0BD9
S113093082169306A406B50654F0A62FB72F0E947C
S11309404115A50194010E941215120F01C0160F42
S1130950812F0E94CD07E9C0113009F0E6C08D81D6
S1130960823009F0A7C08C859D85AE85BF85460180
S11309705701881A990AAA0ABB0A88899989AA89F7
S1130980BB8931E00097A105B10509F030E021E011
S113099088159905AA05BB050CF020E0211103C0B8
S11309A0332309F45AC0222379F0332329F08EED3E
S11309B091E00E94E30D04C085EF91E00E94E30DF5
S11309C09E818B85890F8E83CC86DD86EE86FF869D
S11309D049815A816B817C818F819885A985BA85EB
S11309E0840F951FA61FB71F8C199D09AE09BF0957
S11309F0893C9105A105B105ECF480E092E00E94E8
S1130A00E30D49815A816B817C818F819885A98509
S1130A10BA85840F951FA61FB71F8C199D09AE09AF
S1130A20BF09888B998BAA8BBB8B8C899E81891B70
S1130A308B8713C068EC8AE00E947200AA2797FD96
S1130A40A095BA2F888B998BAA8BBB8B64E686E41E
S1130A500E9472009E81891B8B872E814FEF240395
S1130A60C001112424E630E0B9010E94FE14162FBF
S1130A705B855403C0011124B9010E94FE14C88887
S1130A80D988EA88FB88C814D904EA04FB046CF00A
S1130A90A62FB72FA50194010E944115A701960125
S1130AA00E941215812F820F02C0812F860F0E948F
S1130AB0D0073BC08130C9F52E813FEF2303C0012D
S1130AC0112464E670E00E94FE14162F8F8098842F
S1130AD0A984BA8481149104A104B10419F12B8569
S1130AE03FEF2303C001112464E670E00E94FE146A
S1130AF089819A81AB81BC81A7019601281B390B9E
S1130B004A0B5B0B82169306A406B50654F0A62F77
S1130B10B72F0E944115A50194010E941215120FCE
S1130B2001C0160F812F0E94D007DF91CF911F9132
S1130B30FF90EF90DF90CF90BF90AF909F908F90F9
S1130B4008951F93CF93DF93CDB7DEB76E970FB69B
S1130B50F894DEBF0FBECDBF182F282F30E085E1FB
S1130B60189FF0011124E55AFA4F8081E82FF0E034
S1130B70EC5FFE4F1083823080F0982F94509430B5
S1130B80B0F495E1929FF001939FF00D1124E55A82
S1130B90FA4F66810E94D2070AC095E1929FB00184
S1130BA0939F700D1124655A7A4F0E94AF030E94DF
S1130BB0DD0CAE014F5F5F4F0E94EA0BCE01019640
S1130BC00E94E30D89EA91E00E94E30D812F0E94C7
S1130BD0F4016E960FB6F894DEBF0FBECDBFDF9161
S1130BE0CF911F910895DB011C9220910C012223C7
S1130BF0B9F020E055E1529FF0011124E55AFA4F73
S1130C003081341308C03C91FC01E30FF11D2083B3
S1130C103C913F5F3C932F5F30910C01231758F3B5
S1130C2008952F923F924F925F926F927F928F928C
S1130C309F92AF92BF92CF92DF92EF92FF920F9367
S1130C401F93CF93DF93CDB7DEB765970FB6F894B4
S1130C50DEBF0FBECDBF80915605813009F413C1AC
S1130C600E94DD0C462E572E682E792E19820F2EE7
S1130C70F4E0AF2EF1E0BF2EF02D0F2EFCE0CF2ECE
S1130C80F1E0DF2EF02D85010F2EF5E18F2EF02DF2
S1130C9033243394212C402F4A197801D8018C91A4
S1130CA08E3F09F4EAC0BE016F5F7F4FCE0102960A
S1130CB00E94F3052981222309F4DFC0EA818E9E74
S1130CC0F0011124E55AFA4F81819281A381B48104
S1130CD0481659066A067B066CF5E1E0F0E0EC0F75
S1130CE0FD1FE20FF11D8081282F30E0F7014081C4
S1130CF0552747FD509591E02417350709F490E0F6
S1130D00911115C0829EF001839EF00D1124E55AC5
S1130D10FA4F91E047815085618572851416150656
S1130D20160617060CF090E0992309F4A6C00E9459
S1130D30A105A3C0E1E0F0E0EC0FFD1FE20FF11DFF
S1130D408081E82FF0E08E9ED0018F9EB00D11249B
S1130D50A55ABA4F11964D915D916D917C9114975E
S1130D6044165506660677061CF4223030F585C015
S1130D70D7012C91332727FD309591E0E217F30733
S1130D8009F490E0911116C08E9E90018F9E300D53
S1130D901124F901E55AFA4F91E0478150856185A4
S1130DA0728514161506160617060CF090E09923A2
S1130DB009F463C00E94A10560C099249394492D4D
S1130DC050E0E1E0F0E0EC0FFD1FE40FF51F80813F
S1130DD0282F30E0E2E0F0E0EC0FFD1FE40FF51FF8
S1130DE0E0818E9EF0011124E55AFA4F932D418142
S1130DF052816381748144165506660677060CF0A9
S1130E00922D9923A9F1829EF001839EF00D112465
S1130E10E55AFA4F932D41815281638174814416BE
S1130E205506660677060CF4922D992309F1F7010D
S1130E304081552747FD5095932D2417350709F414
S1130E40922D911113C0829EF001839EF00D112406
S1130E50E55AFA4F932D47815085618572851416A2
S1130E601506160617060CF0922D91110E94A10585
S1130E7093948981981608F4A2CF0F5F1F4F0C1525
S1130E801D0509F008CF65960FB6F894DEBF0FBEB6
S1130E90CDBFDF91CF911F910F91FF90EF90DF9025
S1130EA0CF90BF90AF909F908F907F906F905F9006
S1130EB04F903F902F900895CF92DF92EF92FF9240
S1130EC0CF93DF93CDB7DEB76E970FB6F894DEBF3E
S1130ED00FBECDBF0E94DD0CCB010E94E01580E067
S1130EE090E00E94381B80930C01811108C08CE0B3
S1130EF092E00E94F70D81E08093560523C044EAF6
S1130F0051E061E070E08BE595E00E94281B0E94AF
S1130F10C5010E9435030E94DD0C6B017C0185E252
S1130F2092E00E94E30DAE014F5F5F4FC701B6012F
S1130F300E94EA0BCE0101960E94E30D0E94F20D7D
S1130F400E9411066E960FB6F894DEBF0FBECDBF99
S1130F50DF91CF91FF90EF90DF90CF9008951092A2
S1130F6056050E945C07089580915605813011F062
S1130F700E9411060895569A559A84B5826084BDDC
S1130F8084B5816084BD85B5826085BD84B58F7B61
S1130F9084BD84B5806884BD0895809587BD089517
S1130FA088BD0895853049F018F4843009F513C0DC
S1130FB0863051F08730E1F415C0549A613011F451
S1130FC05C9A08955C980895579A613011F45F9A79
S1130FD008955F9808953A9A613011F4429A0895F9
S1130FE042980895209A613011F4289A0895289817
S1130FF00895E4E6F0E080818F7780838CE6809327
S1131000B800E9EBF0E0808182608083ECEBF0E0F3
S113101080818460808308950F931F93CF93DF931F
S1131020CDB7DEB72F970FB6F894DEBF0FBECDBF96
S11310300E94E30D8091B900887F1F928F9383E310
S113104092E09F938F938E010F5F1F4F1F930F9317
S11310500E943516C8010E94E30D0F900F900F9067
S11310600F900F900F902F960FB6F894DEBF0FBE1F
S1131070CDBFDF91CF911F910F91089584EA8093A2
S1131080BC00ECEBF0E080818823ECF7E9EBF0E0C6
S113109020819081987F81E0903109F480E0882359
S11310A059F0287F81E0283009F480E0882321F07A
S11310B087E392E00E940C0808958093BB0084E8C3
S11310C08093BC00ECEBF0E080818823ECF7809106
S11310D0B900887F803421F082E492E00E940C08F9
S11310E008958093BB0084E88093BC00ECEBF0E0AF
S11310F080818823ECF78091B900887F883121F0C2
S113110084E592E00E940C0808958093BB0084E873
S11311108093BC00ECEBF0E080818823ECF78091B5
S1131120B900887F883221F087E692E00E940C089B
S1131130089584EC8093BC00ECEBF0E0808188237C
S1131140ECF78091B900887F803521F081E792E047
S11311500E940C088091BB00089584E88093BC0031
S1131160ECEBF0E080818823ECF78091B900887F74
S1131170883521F08EE792E00E940C088091BB0034
S1131180089584E98093BC0008950F931F939DEC08
S1131190899FE12D1124E695E695E695FE2FFF0F34
S11311A0AF2FAA0FAA0FFA0F8F1BF0E1EF9F800D4C
S11311B01124F8018083799F812D112486958695C9
S11311C08695E82FEE0FFE2FFF0FFF0FEF0F7E1B0C
S11311D0F0E18F9F700D1124F9017083699F912DA7
S11311E01124969596959695892F880F282F220F6E
S11311F0220F820F681BF0E19F9F600D1124FA01FA
S113120060831F910F9108950F931F93CF93DF93E2
S113121000D01F92CDB7DEB7FC016081718182815D
S11312208E010D5F1F4F9E012E5F3F4FAE014F5F3A
S11312305F4F0E94C5080E943E0882EA0E9471081E
S113124082E00E9485088B810E9485088A810E9421
S1131250850889810E9485080E94C10883ED90E376
S11312600197F1F700C000000F900F900F90DF91ED
S1131270CF911F910F910895F901942F907796952E
S113128096959695292F220F220F920F4F70940F47
S11312909283962F9077969596959695292F220F5F
S11312A0220F920F6F70960F9183982F90739695DB
S11312B096959695292F220F220F920F8F70980FD3
S11312C090830895FF920F931F93CF93DF93EC01C4
S11312D00E943E0882EA0E94710882E00E9485080A
S11312E00E943E0883EA0E945D080E949908F82E35
S11312F00E949908082F0E94AD08182F0E94C10867
S113130083ED90E30197F1F700C000009E014F2D9B
S1131310602F812F0E943C09DF91CF911F910F9183
S1131320FF900895EF92FF920F931F93CF93DF9353
S1131330CDB7DEB7A1970FB6F894DEBF0FBECDBF11
S1131340CE0101960E9462098CE292E00E94E30DB4
S113135089811F928F938DE091E09F938F938E01EB
S11313600C5F1F4F1F930F930E943516C8010E94F4
S1131370E30D80E992E00E94E30D8A811F928F932E
S11313800F2EF2E9EF2EF2E0FF2EF02DFF92EF92F6
S11313901F930F930E943516C8010E94E30D80E944
S11313A092E00E94E30D8B811F928F93FF92EF9244
S11313B01F930F930E943516C8010E94E30D83E525
S11313C095E00E94E30D0FB6F894DEBF0FBECDBFCB
S11313D0A1960FB6F894DEBF0FBECDBFDF91CF91BB
S11313E01F910F91FF90EF9008950F931F93CF9348
S11313F0DF93F801942F9073969596959695392FCF
S1131400330F330F930F4F70490F277064FB9927E5
S113141090F9990F392F330F330F930F362F3F70F5
S1131420930FA82FA295AF70B0E0AA0FBB1FED01D8
S1131430CC0FDD1FCC0FDD1FAC0FBD1F8F70A80FAD
S1131440B11D66231CF4A053B84F02C0A459B84F71
S1131450408321839283B483A383DF91CF911F912F
S11314600F9108957F928F929F92AF92BF92CF92E5
S1131470DF92EF92FF920F931F93CF93DF9300D0ED
S113148000D01F92CDB7DEB77C838D835901762EB1
S1131490EC81FD81E03D27E0F20708F441C09F01A3
S11314A0205D3740ADECBCEC0E942E154C019694A7
S11314B0879496948794969487949F010E942E15FE
S11314C09695879596958795969587959C01220F75
S11314D0331F880F991F880F991F880F991F820F38
S11314E0931FE81BF90B80E1889EE00D1124D501C0
S11314F0EC938DEC789E812D1124869586958695A6
S1131500982F990F292F220F220F920F791AB0E1E9
S11315108B9F700C1124872D8068F80180833EC056
S11315209F012C563740ADECBCEC0E942E154C01AB
S11315309694879496948794969487949F010E9496
S11315402E159695879596958795969587959C01E2
S1131550220F331F880F991F880F991F880F991F17
S1131560820F931FE81BF90B20E1829EE00D1124EA
S1131570D501EC938DEC789E812D1124869586956A
S11315808695982F990F292F220F220F920F791ADF
S1131590B0E18B9F700C1124F80170828DEC489F90
S11315A0912D1124969596959695292F220F322FD9
S11315B0330F330F230F421BF0E19F9F400D112483
S11315C0D7014C93589F812D112486958695869535
S11315D0982F990F292F220F220F920F591BB0E138
S11315E08B9F500D1124F60150830F900F900F9094
S11315F00F900F90DF91CF911F910F91FF90EF907B
S1131600DF90CF90BF90AF909F908F907F90089580
S1131610EF92FF920F931F93CF93DF938C010E945D
S11316203E0882EA0E94710885E00E9485080E94B3
S11316303E0883EA0E945D080E949908F82E0E94E1
S11316409908E82E0E949908D82F0E94AD08C82F47
S11316500E94C1082E2D4F2D6D2F8C2F0E94F5094D
S1131660DF91CF911F910F91FF90EF900895CF924A
S1131670DF92EF92FF920F931F93CF93DF9300D0EB
S113168000D0CDB7DEB7FC016894CC24C2F8D12CCD
S1131690CC0EDD1E0F2EF3E0EF2EF12CF02DEC0E10
S11316A0FD1E8E010E5F1F4F9E012F5F3F4F408135
S11316B051816281738184810E94320A0E943E08B2
S11316C082EA0E94710885E00E9485088B810E944D
S11316D085088C810E9485088A810E9485088981F9
S11316E00E9485080E94C10883ED90E30197F1F7F9
S11316F000C000000F900F900F900F90DF91CF91DA
S11317001F910F91FF90EF90DF90CF9008950F936A
S11317101F93CF93DF93CDB7DEB72A970FB6F89414
S1131720DEBF0FBECDBF8C0142E050E0BC01CE0154
S113173001960E94FF151B8218861F82BE01695FF5
S11317407F4FCE0101960E945900892B69F1B8019F
S11317506E5F7F4F42E050E0CE0101960E94FF157C
S11317601B821A861986BE01675F7F4FCE010196E0
S11317700E945900892BE1F0AF81B88520E13EE059
S11317800E943A1549855A85ECE3E49F9001E59F50
S1131790300D11248901222717FD2095322F060FC1
S11317A0171F281F391F07C00FEF1FEF980103C031
S11317B00FEF1FEF9801602F712F822F932F2A961E
S11317C00FB6F894DEBF0FBECDBFDF91CF911F914E
S11317D00F9108958F929F92AF92BF92CF92DF9212
S11317E0EF92FF920F931F93CF93DF93CDB7DEB7A2
S11317F06E970FB6F894DEBF0FBECDBF8A0120E806
S113180031E541E050E00E94121520E13EE040E065
S113181050E00E9412156B017C01822F992787FDED
S113182090959F932F930F2EF2E98F2EF2E09F2E27
S1131830F02D9F928F92AA24A394B12CAC0EBD1EBE
S1131840BF92AF920E94351642E050E0B501C80144
S11318500E94FF15C701B6012CE330E040E050E0E0
S11318600E941215822F992787FD90959F932F939D
S11318709F928F92BF92AF920E94351642E050E041
S1131880B501C80102960E94FF15F80114820FB633
S1131890F894DEBF0FBECDBF6E960FB6F894DEBFD0
S11318A00FBECDBFDF91CF911F910F91FF90EF90AD
S11318B0DF90CF90BF90AF909F908F900895CF937B
S11318C0DF93EC0167E972E00E94F615282F392FA7
S11318D0232B81F16BE972E0CE010E94F615282FCB
S11318E0392F232B51F16FE972E0CE010E94F615D6
S11318F0282F392F232B21F163EA72E0CE010E94B5
S1131900F615282F392F232BF1F067EA72E0CE0168
S11319100E94F615282F392F232BC1F06BEA72E0B1
S1131920CE010E94F615282F392F232B91F426E09F
S113193030E011C021E030E00EC022E030E00BC006
S113194023E030E008C024E030E005C025E030E0CA
S113195002C020E030E0822F932FDF91CF910895D1
S11319600097A1F081309105A1F082309105A1F09A
S113197083309105A1F084309105A1F08530910563
S1131980A1F00697A9F42BEA32E014C02FEA32E062
S113199011C027E932E00EC02BE932E00BC02FE979
S11319A032E008C023EA32E005C027EA32E002C090
S11319B023EB32E0822F932F0895CF92DF92EF92A0
S11319C0FF920F931F93CF93DF93CDB7DEB7289782
S11319D00FB6F894DEBF0FBECDBFCE0101960E94B4
S11319E06209CE0104960E94080B298130E0A0E12F
S11319F0BEE00E942E156B017C012A81ACE3B0E0AD
S1131A000E942E1597018601060F171F281F391FE4
S1131A108B81080F111D211D311D602F712F822F05
S1131A20932F28960FB6F894DEBF0FBECDBFDF917B
S1131A30CF911F910F91FF90EF90DF90CF90089579
S1131A400E943E0882EA0E9471088DE00E94850887
S1131A5080E00E9485080E94C10883ED90E301970D
S1131A60F1F700C000000895CF930E943E0882EA77
S1131A700E94710882E00E9485080E943E0883EA61
S1131A800E945D080E94AD08C82F0E94C1088C2FD7
S1131A90992787FD9095892F881F8827881F90E0B4
S1131AA0CF9108950E943E0882EA0E94710882E064
S1131AB00E94850880E00E9485080E94C10808955C
S1131AC0EF92FF920F931F93CF93DF93CDB7DEB7BF
S1131AD0A3970FB6F894DEBF0FBECDBFCE0101961B
S1131AE00E94080B8FEB92E00E94E30D8D818F938F
S1131AF08C818F938DE091E09F938F938E010A5F89
S1131B001F4F1F930F930E943516C8010E94E30DC7
S1131B1084EB91E00E94E30D8B811F928F930F2E33
S1131B20F2E9EF2EF2E0FF2EF02DFF92EF921F93D9
S1131B300F930E943516C8010E94E30D84EB91E0D7
S1131B400E94E30D89811F928F93FF92EF921F935E
S1131B500F930E943516C8010E94E30D89EA91E0B3
S1131B600E94E30D8A8190E00E94B00C0E94E30D74
S1131B7083E595E00E94E30D0FB6F894DEBF0FBE37
S1131B80CDBFA3960FB6F894DEBF0FBECDBFDF91D5
S1131B90CF911F910F91FF90EF900895EFEFF6E032
S1131BA08FE798E01192E817F907E1F710925A05C8
S1131BB0109259050895E0ECF0E0908195FFFDCF77
S1131BC08093C6000895CF93DF93EC018881882326
S1131BD031F021960E94DB0D89918111FBCFDF91B9
S1131BE0CF91089583E595E00E94E30D08950E9446
S1131BF0E30D83E595E00E94E30D08950F931F9391
S1131C00CF93DF93CDB7DEB76E970FB6F894DEBFF0
S1131C100FBECDBF9F938F937F936F9386EC92E01B
S1131C209F938F938E010F5F1F4F1F930F930E94FB
S1131C303516C8010E94E30D0FB6F894DEBF0FBE3F
S1131C40CDBF6E960FB6F894DEBF0FBECDBFDF9149
S1131C50CF911F910F9108952F923F924F925F92CF
S1131C606F927F928F929F92AF92BF92CF92DF92A8
S1131C70EF92FF920F931F93CF93DF93CDB7DEB70D
S1131C80A0970FB6F894DEBF0FBECDBFADB6BEB6FB
S1131C90AB8E3EB73C8FE82FF92FDF010D9000206B
S1131CA0E9F711976D01CE1ADF0A86010F5F1F4F06
S1131CB0EDB7FEB7E01BF10B0FB6F894FEBF0FBEF5
S1131CC0EDBFEDB6FEB621E030E0E20EF31EA60154
S1131CD0682F792FC7010E94FF15F701EC0DFD1D38
S1131CE010826DE370E0C7010E94EB15009709F4C0
S1131CF036C33DB73D8FEEB7EE8F4C018E189F086B
S1131D002401FFEF4F1A5F0A2DB73EB72419350996
S1131D100FB6F8943EBF0FBE2DBF0DB71EB70F5FB1
S1131D201F4FA401B701802F912F0E94FF15F801C6
S1131D30E80DF91D1082C601881999094C01019614
S1131D40EDB7FEB7E81BF90B0FB6F894FEBF0FBE54
S1131D50EDBFCDB6DEB621E030E0C20ED31E1601D3
S1131D6031E0831A9108CF8ED8A2B701640D751D96
S1131D70A4018C2D9D2D0E94FF15F601E80DF91D7F
S1131D8010826AEC72E0802F912F0E94F615282FA2
S1131D90392F232BC9F50E949300813029F08FEC51
S1131DA092E00E94E30DD1C2EF8CF8A000E010E0B5
S1131DB042E050E0B701CE010E960E94FF15188A4A
S1131DC0B801660F771F81E090E08C0F9D1F680FAC
S1131DD0791FCE010E960E945900892B39F48EEE9C
S1131DE092E00E94E30D0E94F20D09C00F5F1F4FA5
S1131DF093E0E90EF11C03301105D1F60BC481E028
S1131E0093E00E94E30D97C26BE573E0802F912F5E
S1131E100E94F615282F392F232B09F083C00E9426
S1131E209300813029F08FEC92E00E94E30D8DC283
S1131E3000E010E0412C512C32017601E5E0EE0E79
S1131E40F11CF8E02F0E311C0130110591F038F02F
S1131E5002301105B9F00330110541F51CC044E00E
S1131E6050E06F8D78A1CE010E960E94FF151A8A5C
S1131E7020C042E050E0B701CE010E960E94FF154B
S1131E80188A17C042E050E0B101CE010E960E94BC
S1131E90FF15188A0EC0B601655F7F4F43E050E01E
S1131EA0CE010E960E94FF151A8A1CC0033011053C
S1131EB0C9F0B801660F771F21E030E02C0F3D1FF9
S1131EC0620F731FCE010E960E9459002C016624E6
S1131ED057FC6094762C0F5F1F4F0430110509F0F6
S1131EE0B3CF06C0CE010E960E945F0C98878F83F5
S1131EF045284628472829F480E693E00E94E30D0C
S1131F001AC289819A819D878C878B818B878D8169
S1131F1089878F818A87CE0109960E94370B0E9498
S1131F20600D09C263E773E0802F912F0E94F615BC
S1131F30282F392F232B09F09CC00E949300813055
S1131F4029F08FEC92E00E94E30DFFC1AE01475EE1
S1131F505F4F67E773E08F8D98A10E940E160E9471
S1131F609A006C01AE01475E5F4F67E773E080E063
S1131F7090E00E940E160E94870B2B013C01AE01DB
S1131F80475E5F4F67E773E080E090E00E940E16C3
S1131F908C01188E1F8A69E773E00E94F615282FBA
S1131FA0392F232BD1F06DE773E0C8010E94F61599
S1131FB0282F392F232B29F481E090E0988F8F8BE1
S1131FC00CC0BE01695E7F4FC8010E945900892B75
S1131FD021F482E893E00E94E30DAE01475E5F4F77
S1131FE067E773E080E090E00E940E162FEF3FEF6A
S1131FF03E8B2D8B3C8B2B8B009729F1BE016B5EA6
S11320007F4F0E945900892B21F48AE993E00E94B2
S1132010E30DAE01475E5F4F67E773E080E090E059
S11320200E940E16BE016D5E7F4F0E945900892BDF
S113203021F48CEA93E00E94E30DEB88FC883FEFE7
S1132040E316F30641F42F89388DB301A201C601CA
S11320500E94040109C00D891E892F89388DB3019E
S1132060A201C6010E944B018CE194E00E94E30DA1
S113207062C163EC73E0802F912F0E94F615282F24
S1132080392F232B09F078C00E949300813029F066
S11320908FEC92E00E94E30D58C1AE01475E5F4FA2
S11320A067E773E08F8D98A10E940E160E949A0034
S11320B06C01AE01475E5F4F67E773E080E090E03C
S11320C00E940E160E94870B2B013C01AE01475E55
S11320D05F4F67E773E080E090E00E940E16188E71
S11320E01F8ABE01695E7F4F0E945900892B21F42B
S11320F082E893E00E94E30DAE01475E5F4F67E71D
S113210073E080E090E00E940E162FEF3FEF3E8BCD
S11321102D8BBE016B5E7F4F0E945900892B21F4E9
S11321208CEA93E00E94E30DAE01475E5F4F67E7E0
S113213073E080E090E00E940E162FEF3FEF3C8B9F
S11321402B8BBE016D5E7F4F0E945900892B21F4B9
S113215089EC93E00E94E30DEB88FC880D891E89CD
S11321602F89388DB301A201C6010E9488018CE138
S113217094E00E94E30DDFC064E271E0802F912FB0
S11321800E94F615282F392F232BB1F4BE016D5E62
S11321907F4F8F8D98A10E945900892B29F483EEDB
S11321A093E00E94E30DC7C08B890E94CD078CE1A8
S11321B094E00E94E30DBFC069E271E0802F912F8B
S11321C00E94F615282F392F232BB1F4BE016D5E22
S11321D07F4F8F8D98A10E945900892B29F486EF97
S11321E093E00E94E30DA7C08B890E94D0078CE185
S11321F094E00E94E30D9FC060E171E0802F912F75
S11322000E94F615282F392F232B91F4F601808193
S1132210813329F461E084E00E94D20704C060E0C5
S113222084E00E94D2078CE194E00E94E30D83C015
S113223065E171E0802F912F0E94F615282F392F28
S1132240232B91F4F6018081813329F461E085E048
S11322500E94D20704C060E085E00E94D2078CE1AE
S113226094E00E94E30D67C06AE171E0802F912F32
S11322700E94F615282F392F232B91F4F601808123
S1132280813329F461E086E00E94D20704C060E053
S113229086E00E94D2078CE194E00E94E30D4BC0DB
S11322A06FE171E0802F912F0E94F615282F392FAE
S11322B0232B91F4F6018081813329F461E087E0D6
S11322C00E94D20704C060E087E00E94D2078CE13C
S11322D094E00E94E30D2FC069E074E0802F912FF9
S11322E00E94F615282F392F232B09F50E949300FD
S11322F0813029F08FEC92E00E94E30D26C00E9409
S1132300CE0D81E090E09093580580935705409A54
S11323108FE493EC0197F1F700C000008F8D98A132
S11323200E94E30D83E595E00E94E30D0EC087E370
S113233094E00E94E30D3D8D2E8D832F922F0FB6D6
S1132340F8949EBF0FBE8DBF51C13D8D2E8D832F3E
S1132350922F0FB6F8949EBF0FBE8DBF51C18DB69C
S11323609EB6EDB7FEB7E01BF10B0FB6F894FEBFB7
S11323700FBEEDBF0DB71EB70F5F1F4FA601B7010C
S1132380802F912F0E94FF15F801EC0DFD1D108286
S11323906EE074E0802F912F0E94F615282F392FBC
S11323A0232B29F485E194E00E94E30D0FC161E23F
S11323B074E0802F912F0E94F615282F392F232B9C
S11323C061F40E949300813019F40E949209FEC0C6
S11323D08FEC92E00E94E30DF9C067E274E0802F75
S11323E0912F0E94F615282F392F232B61F40E9478
S11323F09300813019F40E94600DE8C08FEC92E0E4
S11324000E94E30DE3C069E074E0802F912F0E94E5
S1132410F615282F392F232BE9F40E9493008130DD
S113242029F08FEC92E00E94E30DD8C081E090E0A7
S113243090935805809357050E94CE0D409A87EAE1
S113244091E60197F1F700C000008DE294E00E944C
S1132450E30DC4C06BE374E0802F912F0E94F61546
S1132460282F392F232B39F40E94200D8CE194E07E
S11324700E94E30DABC06AE474E0802F912F0E94A8
S1132480F615282F392F232B81F40E9493008130D5
S113249029F08FEC92E00E94E30DA0C00E94770324
S11324A08CE194E00E94E30D91C067E574E0802F15
S11324B0912F0E94F615282F392F232B19F40E94EF
S11324C0350384C069E172E0802F912F0E94F615D4
S11324D0282F392F232B81F40E949300813029F473
S11324E084E694E00E94E30D79C00E9496008CE19A
S11324F094E00E94E30D6AC06FE774E0802F912F8F
S11325000E94F615282F392F232B81F40E94930063
S1132510811105C08AE894E00E94E30D5FC00E9427
S1132520AF078CE194E00E94E30D50C064EA74E0CC
S1132530802F912F0E94F615282F392F232BB9F4C1
S11325400E949300813029F08FEC92E00E94E30D09
S113255045C00E94340D892B29F08BEA94E00E9437
S1132560E30D34C083ED94E00E94E30D2FC06CEFC3
S113257074E0802F912F0E94F615282F392F232BDA
S113258081F40E949300813029F08FEC92E00E9444
S1132590E30D24C00E94520D8CE194E00E94E30DEF
S11325A015C065E075E0802F912F0E94F615282F45
S11325B0392F232B39F48CE194E00E94E30D0E941F
S11325C0D11404C087E394E00E94E30D882D992D73
S11325D00FB6F8949EBF0FBE8DBF08C0882D992DED
S11325E00FB6F8949EBF0FBE8DBF0AC03B8D2C8DD5
S11325F0832F922F0FB6F8949EBF0FBE8DBF19C0C4
S11326003B8D2C8D832F922F0FB6F8949EBF0FBE57
S11326108DBF0FC00E94F20D898189878B818A87C3
S11326208D818B87CE0109960E9404090E9492092C
S1132630E6CB0FB6F894BEBE0FBEADBEA0960FB6E5
S1132640F894DEBF0FBECDBFDF91CF911F910F91E4
S1132650FF90EF90DF90CF90BF90AF909F908F90BE
S11326607F906F905F904F903F902F9008950F93BD
S11326701F93CF93DF93CDB7DEB7C255D1090FB601
S1132680F894DEBF0FBECDBF8091570590915805D9
S1132690019759F5409887EA91E60197F1F700C050
S11326A000001092580510925705FE013196CE0194
S11326B08F5A9F4F1192E817F907E1F74091590596
S11326C050915A05415051096FEF76E0CE010196C1
S11326D00E94FF15CE0101960E94E30D83E595E06B
S11326E00E94E30D0E94CE0D64C081E0909100072A
S11326F0943509F080E0882309F45BC081E090916F
S1132700FF06913409F080E0882309F452C08091D7
S11327100107811105C08CE194E00E94E30D47C0DC
S11327208B3209F044C091E080910307813409F0B1
S113273090E081E020910207203509F080E09823A1
S113274081E020910407233509F080E0892389F092
S113275081E090910507933509F080E0882349F0E2
S113276082E097E00E94F70D82E097E00E942C0E31
S113277020C0AE014F5A5F4F6BE075E082E097E0F6
S11327800E940E168C01009791F0C8010E94F70D6B
S1132790C8010E942C0EAE014F5A5F4F6BE075E0EA
S11327A080E090E00E940E168C01009771F70E9461
S11327B0CE0DCE5ADF4F0FB6F894DEBF0FBECDBF9D
S11327C0DF91CF911F910F9108951F920F920FB631
S11327D00F9211242F933F934F935F936F937F93A3
S11327E08F939F93AF93BF93CF93EF93FF93C09136
S11327F0C600CA30D1F0CD30C1F080915905909116
S11328005A058F3721E0920750F4FC01E150F94F4B
S1132810C083019690935A058093590506C08EE0B3
S113282095E00E94E30D0E94F20D2091FF0681E0E5
S11328302B3109F480E0882349F081E0213409F444
S113284080E0882319F00E94CE0D47C031E08091CA
S1132850590590915A05029708F430E090910007C9
S113286081E0213409F080E0832369F081E094352C
S113287009F480E0882339F087E394E00E94E30DB3
S11328800E94CE0D2AC081E02B3109F080E038236C
S113289061F081E0933509F080E0882331F08FE323
S11328A00E94DB0D0E94D1140BC0332349F081E058
S11328B0933509F480E0882319F00E94CE0D0DC0F1
S11328C0CA3011F0CD3049F4E0915905F0915A0520
S11328D0E150F94F10820E943713FF91EF91CF918D
S11328E0BF91AF919F918F917F916F915F914F9124
S11328F03F912F910F900FBE0F901F901895E4E613
S1132900F0E080818D7F8083E1ECF0E0808180685D
S113291080831092C5008CE08093C400A0ECB0E0EA
S11329208C9182608C93A2ECB0E08C9186608C9345
S11329308081806180838081886080830895CF93C3
S1132940DF93CDB7DEB727970FB6F894DEBF0FBE7F
S1132950CDBF0E94F907399A419A389A40980E944B
S11329607F14559A87E0EBE3F2E0DE0111960190C3
S11329700D928A95E1F7CE0101960E94E30D83E55D
S113298095E00E94E30D0E94BB078FB780688FBF5C
S113299027960FB6F894DEBF0FBECDBFDF91CF915F
S11329A008952CE088E190E00FB6F894A895809300
S11329B060000FBE20936000089514BE88E10FB636
S11329C0F89480936000109260000FBE0E949F14E0
S11329D00E94340D892B21F089E295E00E94E30DD9
S11329E00E945C072FE382E49FE0215080409040E6
S11329F0E1F700C000000E94B407F4CF97FB072E54
S1132A0016F4009407D077FD09D00E94491507FCFD
S1132A1005D03EF4909581959F4F089570956195EA
S1132A207F4F0895052E97FB16F4009407D057FDA9
S1132A300DD00E945D1507FC09D07EF49095809519
S1132A40709561957F4F8F4F9F4F08955095409596
S1132A50309521953F4F4F4F5F4F0895A29FB0018E
S1132A60B39FC001A39F01D0B29F700D811D11249B
S1132A70911D08950E942E15B7FF0895821B930B94
S1132A800895B7FF0C947F150E947F15821B930B4A
S1132A900895AA1BBB1B51E107C0AA1FBB1FA617A1
S1132AA0B70710F0A61BB70B881F991F5A95A9F7F3
S1132AB080959095BC01CD010895A1E21A2EAA1B20
S1132AC0BB1BFD010DC0AA1FBB1FEE1FFF1FA217DA
S1132AD0B307E407F50720F0A21BB30BE40BF50BD7
S1132AE0661F771F881F991F1A9469F76095709560
S1132AF0809590959B01AC01BD01CF0108950E9482
S1132B002E15A59F900DB49F900DA49F800D911D2F
S1132B10112408958F929F92AF92BF92CF92DF9229
S1132B20EF92FF92CF93DF93EC01688179818A81E0
S1132B309B81611571058105910521F464E279EDAC
S1132B408BE597E02DE133EF41E050E00E94121550
S1132B5049015A019B01AC01A7EAB1E40E947F1527
S1132B606B017C01ACEEB4EFA50194010E94441505
S1132B70C60ED71EE81EF91EF7FE06C081E0C81A6D
S1132B80D108E10880E8F80AC882D982EA82FB8287
S1132B90E894D7F8EE24FF24C601DF91CF91FF908B
S1132BA0EF90DF90CF90BF90AF909F908F9008955B
S1132BB00E948A15089580E091E00E948A15089584
S1132BC0A0E0B0E08093000190930101A093020182
S1132BD0B09303010895FC018191861721F08823A5
S1132BE0D9F7992708953197CF010895FB01DC01A6
S1132BF08D91019080190110D9F3990B0895FB016F
S1132C00DC014150504048F001900D920020C9F77A
S1132C1001C01D9241505040E0F70895FA01A1917E
S1132C20B081009719F41097E1F0CD01DC01CD01DA
S1132C300D90002011F4C00113C0FB012191222347
S1132C4019F02015D9F7F3CFFB012191201519F4C0
S1132C501E92119606C02223C1F70D900020A1F701
S1132C60D001FA01A193B0830895AEE0B0E0EBE3A4
S1132C70F6E10C94771C0D891E8986E08C831A83F7
S1132C8009838FEF9FE79E838D83CE014996AC0124
S1132C906F89788DCE0101960E947016EF81F885B8
S1132CA0E00FF11F10822E96E4E00C94931CAEE02A
S1132CB0B0E0EDE5F6E10C94791C85E08C838B891A
S1132CC09C899A838983CE014796AC016D897E895C
S1132CD0CE0101960E94FA192E96E2E00C94951CFE
S1132CE0ACE0B0E0E6E7F6E10C94691C7C016B0112
S1132CF08A01FC0117821682838181FFC6C1882460
S1132D008394912C8C0E9D1EF7019381F60193FD03
S1132D10859193FF81916F01882309F4B2C18532B3
S1132D2039F493FD859193FF81916F01853229F4E4
S1132D30B70190E00E94C11BE7CF512C312C20E059
S1132D402032A8F48B3261F028F4803251F08332BF
S1132D5071F40BC08D3239F0803349F4216028C0FE
S1132D602260246025C0286023C0206121C027FD83
S1132D7027C0382F30533A3078F426FF06C0FAE0E3
S1132D805F9E300D1124532E13C08AE0389E300DFF
S1132D901124332E20620CC08E3221F426FD71C121
S1132DA0206406C08C3611F4206802C0883641F4D1
S1132DB0F60193FD859193FF81916F018111C0CF3D
S1132DC0982F9554933018F09052933028F40C5F58
S1132DD01F4FFFE3F9830DC0833631F0833771F061
S1132DE0833509F05EC023C0F801808189830E5FBA
S1132DF01F4F44244394512C540115C03801F2E070
S1132E006F0E711CF801A080B18026FF03C0652DF0
S1132E1070E002C06FEF7FEFC5012C870E94761B24
S1132E202C0183012C856FE7262E222218C038013D
S1132E30F2E06F0E711CF801A080B18026FF03C080
S1132E40652D70E002C06FEF7FEFC5012C870E94F3
S1132E506B1B2C012C8550E8252E222A830123FC90
S1132E601CC006C0B70180E290E00E94C11B3A94E6
S1132E70832D90E048165906A8F30FC0F50127FCEE
S1132E80859127FE81915F01B70190E00E94C11BEB
S1132E9031103A94F1E04F1A51084114510471F77A
S1132EA0EDC0843611F0893641F5F80127FF07C0DB
S1132EB060817181828193810C5F1F4F08C06081A2
S1132EC07181882777FD8095982F0E5F1F4F4FE6FD
S1132ED0B42EB22297FF09C09095809570956195A4
S1132EE07F4F8F4F9F4FF0E8BF2A2AE030E0A401C4
S1132EF00E94081CA82EA81843C0853731F43FEE61
S1132F00B32EB2222AE030E024C099EFB92EB222C7
S1132F108F36B9F020F4883509F0B3C00DC080377E
S1132F2021F0883709F0ADC002C020E1B22AB4FE16
S1132F300BC084E0B82A08C024FF09C0E6E0BE2A1A
S1132F4006C028E030E005C020E130E002C020E106
S1132F5032E0F801B7FE07C06081718182819381FC
S1132F600C5F1F4F06C06081718180E090E00E5FAE
S1132F701F4FA4010E94081CA82EA818FFE7BF2217
S1132F80B6FE0BC02B2D2E7FA51450F4B4FE0AC040
S1132F90B2FC08C02B2D2E7E05C07A2C2B2D03C02D
S1132FA07A2C01C0752C24FF0DC0FE01EA0DF11D21
S1132FB08081803311F4297E09C022FF06C07394F6
S1132FC0739404C0822F867809F0739423FD14C08F
S1132FD020FF0FC05A2C731460F4530C5718732C31
S1132FE008C0B70180E290E02C870E94C11B739453
S1132FF02C857314B0F304C0731410F4371801C093
S1133000312C24FF12C0B70180E390E02C870E948A
S1133010C11B2C8522FF1EC021FF03C088E590E060
S113302002C088E790E0B7010CC0822F867891F047
S113303021FD02C080E201C08BE227FD8DE2B701D1
S113304090E00E94C11B06C0B70180E390E00E949B
S1133050C11B5A94A514C0F3AA94F401EA0DF11DFE
S1133060B701808190E00E94C11BA110F5CF06C07A
S1133070B70180E290E00E94C11B3A943110F8CF6E
S113308043CEF7012681378102C02FEF3FEFC901FC
S11330902C96E2E10C94851C20FD09C0FC0123FD63
S11330A005C022FF02C07383628351834083089565
S11330B0CF92DF92EF92FF920F931F9344FD10C0C3
S11330C046FD10C0DB01FC01AA0FBB1FEE1FFF1F52
S11330D01094D1F76A0F7B1F8E1F9F1F31E003C02E
S11330E033E001C034E0660F771F881F991F315009
S11330F0D1F76B017C01C20ED11CE11CF11C9701BC
S11331008601B601C9011F910F91FF90EF90DF90E6
S1133110CF9008950F931F93CF93DF938C01C80131
S11331200E94811BEC0197FD08C00E94581B892B4B
S1133130B1F7B801CE010E94ED1BCE01DF91CF9112
S11331401F910F9108958F929F92AF92CF92DF9229
S1133150EF92FF920F931F93CF93DF93EC01A62E70
S11331604A01022F0E94811BAC0155274B325105A5
S113317021F04D32510551F40068AA9411F480E015
S113318063C0CE010E94811B97FDF9CF102F1D7FD4
S1133190302F3073E1F48033D1F4AA9409F440C0A1
S11331A0CE010E94811B97FD3BC0883711F0883502
S11331B049F41264AA94A1F1CE010E94811B97FFE5
S11331C006C02EC006FF02C0126001C01261C12CED
S11331D0D12C7601282F2053283080F014FF04C00E
S11331E0BE010E94ED1B19C02A3040F016FFF8CF33
S11331F02F7D322F3151363098F72750412FC70198
S1133200B6010E9458186B017C011260AA9459F00F
S1133210CE010E94811B97FFDDCF11FD04C0AFCF0B
S1133220C12CD12C760117FF08C0F094E094D094FF
S1133230C094C11CD11CE11CF11C212FB701A601B3
S1133240C4010E944C1881E0DF91CF911F910F912E
S1133250FF90EF90DF90CF90AF909F908F90089564
S11332606F927F929F92AF92BF92CF92DF92EF9232
S1133270FF920F931F93CF93DF93CDB7DEB7A19740
S11332800FB6F894DEBF0FBECDBF6C017A01890181
S1133290FE01319680E2DF011D928A95E9F7D6019D
S11332A013969C9020E030E0A12CA0E0B12CCF013B
S11332B041E050E0F80193FC759193FE71918F0108
S11332C0711103C000E010E080C07E3519F42115AF
S11332D0310559F1EB2DF0E0E217F3073CF47D35AD
S11332E069F17D3219F4AA2319F103C0A11101C0B7
S11332F0A72EE72FE695E695E6953C016E0E711C28
S1133300F301A72FA7703A0102C0660C771CAA9597
S1133310E2F7D301B081BA2BB0837A1559F07A154C
S113332010F47F5FE6CF7150E4CFBB24B39403C0A5
S1133330A1E001C0A0E02F5F3F4FBCCFAA2319F04A
S11333408E8180628E83B11003C0BB24B3940BC002
S1133350FE013196CE018196208120952193E817B4
S1133360F907D1F7F2CFC60169A30E94811B69A1B5
S113337097FD24C0282F269526952695E1E0F0E0B8
S1133380EC0FFD1FE20FF11D208130E0AC0147700E
S1133390552702C0359527954A95E2F720FD04C0CC
S11333A0B6010E94ED1B0AC0E114F10419F0D70123
S11333B08D937D016150B12CB1F602C0B11082CF62
S11333C0E114F10411F0F7011082C801A1960FB6BF
S11333D0F894DEBF0FBECDBFDF91CF911F910F9147
S11333E0FF90EF90DF90CF90BF90AF909F907F9031
S11333F06F9008954F925F927F928F929F92AF92B7
S1133400BF92CF92DF92EF92FF920F931F93CF93CD
S1133410DF931F92CDB7DEB78C012B017A01FC013B
S113342017821682A12CF0C08C2D90E00E94581BAC
S1133430892B21F0C8010E948A18E6C0F5E2CF1258
S11334400AC0F201D3FC3591D3FE31912F013532FC
S113345071F455E2C52EC8010E94811B97FDDFC09F
S1133460C81609F4D1C0B8010E94ED1BDAC03A3283
S113347041F4D3FC3591D3FE31912F01BB24B39495
S113348001C0B12C712C10C0F2E0BF2A672D70E08E
S113349080E090E040E20E945818762EF201D3FCBE
S11334A03591D3FE31912F01232F20532A3060F31D
S11334B0B1FE03C0711003C0B4C077247A943836C7
S11334C019F03C3699F40AC0F201D3FC3591D3FECD
S11334D031912F01383651F4F8E0BF2A84E0B82A3C
S11334E0F201D3FC3591D3FE31912F01332309F43A
S11334F098C0632F70E088E690E039830E94601BD7
S11335003981892B09F48DC0B0FC07C0F701C08054
S1133510D18082E0E80EF11C02C0C12CD12C3E36D1
S113352051F4F8014681578160E070E02B2DC6010B
S11335300E944C1869C0333691F4B1FC02C0772460
S11335407394C8010E94811B97FD69C0C114D10402
S113355019F0F60181936F017A9499F753C03B35C2
S113356059F49201A601672DC8010E9430192C015B
S1133570009709F047C041C0C80139830E948A18E6
S1133580398197FD4CC03F3659F128F4343629F17E
S1133590393649F52AC0333719F0353721F51DC0BE
S11335A0C8010E94811B4C0197FD11C00E94581B49
S11335B0892B29F0B801C4010E94ED1B08C0C11475
S11335C0D10419F0F60181926F017A9449F7C1147C
S11335D0D104C1F0F601108215C0F0E2BF2A05C083
S11335E080E1B82A02C090E4B92A2B2DA601672DE8
S11335F0C8010E94A318811105C0F801838180735A
S113360071F40FC0B0FEA394F801D380F201D3FC8F
S1133610C590D3FEC1902F01C11006CF02C0AA20CD
S113362019F02A2D30E002C02FEF3FEFC9010F90AF
S1133630DF91CF911F910F91FF90EF90DF90CF908A
S1133640BF90AF909F908F907F905F904F90089520
S1133650DC01CB01FC01F999FECF06C0F2BDE1BD4E
S1133660F89A319600B40D9241505040B8F708953D
S1133670F999FECF92BD81BDF89A992780B5089536
S1133680DC01CB0103C02D910E944B1B41505040E3
S1133690D0F70895262FF999FECF1FBA92BD81BDA8
S11336A020BD0FB6F894FA9AF99A0FBE01960895C0
S11336B091110CC1803219F089508550D0F70895CA
S11336C0FC010590061621F00020D9F7C0010895E9
S11336D03197CF010895FC010590615070400110AD
S11336E0D8F7809590958E0F9F1F0895FC01615027
S11336F0704001900110D8F7809590958E0F9F1F10
S11337000895CF93DF93EC013B8130FF34C036FF43
S11337100AC03F7B3B838E819F8101969F838E836A
S11337202A8130E02AC032FF0FC0E881F98180810C
S1133730992787FD9095009719F430623B831BC04D
S11337403196F983E8830EC0EA85FB85099597FFD6
S113375009C02B81019611F480E101C080E2822B23
S11337608B8309C02E813F812F5F3F4F3F832E8380
S11337709C01332702C02FEF3FEFC901DF91CF91A6
S113378008950F931F93CF93DF938C01EB018B81EB
S113379081FD03C00FEF1FEF1AC082FF0DC02E8101
S11337A03F818C819D812817390764F4E881F98170
S11337B00193F983E88306C0E885F985802F09958C
S11337C0892B41F78E819F8101969F838E83C80147
S11337D0DF91CF911F910F910895FB01238120FF69
S11337E013C026FD11C08F3F3FEF930769F082831A
S11337F02F7D20642383268137812150310937832B
S113380026839C01332702C02FEF3FEFC90108959F
S1133810FA01AA27283051F1203181F1E8946F93FD
S11338206E7F6E5F7F4F8F4F9F4FAF4FB1E03ED0A3
S1133830B4E03CD0670F781F891F9A1FA11D680F41
S1133840791F8A1F911DA11D6A0F711D811D911D74
S1133850A11D20D009F468943F912AE0269F1124E9
S11338603019305D3193DEF6CF010895462F47704D
S1133870405D4193B3E00FD0C9F7F6CF462F4F70A8
S1133880405D4A3318F0495D31FD4052419302D006
S1133890A9F7EACFB4E0A6959795879577956795AC
S11338A0BA95C9F700976105710508959B01AC01AC
S11338B00A2E06945795479537952795BA95C9F7D3
S11338C0620F731F841F951FA01D089599278827D1
S11338D008952F923F924F925F926F927F928F92B0
S11338E09F92AF92BF92CF92DF92EF92FF920F938B
S11338F01F93CF93DF93CDB7DEB7CA1BDB0B0FB695
S1133900F894DEBF0FBECDBF09942A883988488851
S11339105F846E847D848C849B84AA84B984C884E7
S1133920DF80EE80FD800C811B81AA81B981CE0FDE
S1133930D11D0FB6F894DEBF0FBECDBFED010895C3
S1073940F894FFCF25
S113394401000000FEFEFEFEFEFEFEFEFF256400F6
S113395445585030004558503100455850320045C0
S11339645850330050574D300050574D3100505784
S11339744D320050574D33002050574D305F504462
S11339843620002050574D315F50443520002050DC
S1133994574D325F50423120002050574D335F5011
S11339A44433200020455850305F504332200020D7
S11339B4455850315F504434200020455850325FFC
S11339C4504437200020455850335F504230200083
S11339D420756E6B6E6F776E2070696E200045588B
S11339E450200050574D2000252000434C4F55448F
S11339F4532000252F005B735D200048494748206D
S1133A04004C4F5720005B6D5D20004E756D626560
S1133A1472206F66206576656E74733A20006E6555
S1133A247720636C6F7564202D20626567696E6E00
S1133A34696E6720006E657720636C6F756420007F
S1133A446C61737420636C6F756420004E6F206521
S1133A5476656E7473203D3E204D414E55414C5F56
S1133A644D4F4445002073746172742074696D650C
S1133A743A2000252378006572725F73746172744E
S1133A8420006572725F616464726573735F72654A
S1133A94616420006572725F616464726573735F4C
S1133AA4777269746520006572725F73656E642051
S1133AB4006572725F72656365697665200065727C
S1133AC4725F726563656976655F6C617374200007
S1133AD43A0025303264004D4F4E0054554500578A
S1133AE44544005448550046524900534154005338
S1133AF4554E00756E6B6E6F776E20646179006449
S1133B046174653A2000256C640054494D450053A2
S1133B14776974636820746F204D414E55414C207D
S1133B246D6F6465206669727374210D0A005752BF
S1133B344F4E472054494D452050415253450D0A98
S1133B440052656D656D62657220746F20706173D7
S1133B547320616C776179732032206469676974B6
S1133B647320666F722065766572792076616C7550
S1133B74653A2030353A33303A3030206973206F57
S1133B846B2C2062757420353A33303A3030206916
S1133B94732077726F6E67210D0A00444154450007
S1133BA457524F4E472044415445205041525345A7
S1133BB40D0A00414444003B004C4F570048494718
S1133BC4480057524F4E472050494E2053544154B5
S1133BD4452050415253450D0A0057524F4E472039
S1133BE4494E432050415253450D0A0057524F4EFB
S1133BF447204455524154494F4E20504152534555
S1133C040D0A00434C4F55440057524F4E4720462B
S1133C14494E414C2053544154452050415253453C
S1133C240D0A0057524F4E472050574D30205041F3
S1133C345253450D0A0057524F4E472050574D31A9
S1133C442050415253450D0A0050415353004D45F1
S1133C54524F5045004D45524F5045204F4B0D0A8D
S1133C640054494D453F00444154453F0041542BC1
S1133C7456455253494F4E3F0D0A0044495341425D
S1133C844C455F434C4B4F555400434C4541525FA4
S1133C944556454E5453005052494E545F4556457B
S1133CA44E5453004D414E55414C206D6F64652074
S1133CB4616C726561647920736574210D0A004531
S1133CC456454E545F4D4F4445004556454E542089
S1133CD46D6F646520616C726561647920736574C9
S1133CE4210D0A004745545F564C00564C20626926
S1133CF474206973207365742E205265706C61633B
S1133D0465206261636B7570206261747465727995
S1133D140D0A00564C206269742069736E2774205E
S1133D247365742E204261636B75702062617474D0
S1133D34657279206973206F6B0D0A0052455345EF
S1133D44545F564C005245534554002B260045728B
S1133D54726F723A20415420636F6D6D616E6420FA
S1133D64746F206C6F6E6721005265706C616365BB
S1133D74206261636B75702062617474657279206A
S1133D84616E6420636C65617220564C20626974B0
S1093D942121210D0A00AB
S9030000FC
